{
  "contractName": "GeoServiceRegistry",
  "abi": [
    {
      "constant": true,
      "inputs": [
        {
          "name": "",
          "type": "address"
        }
      ],
      "name": "deposit",
      "outputs": [
        {
          "name": "",
          "type": "uint256"
        }
      ],
      "payable": false,
      "stateMutability": "view",
      "type": "function"
    },
    {
      "inputs": [
        {
          "name": "_geoAddress",
          "type": "address"
        }
      ],
      "payable": false,
      "stateMutability": "nonpayable",
      "type": "constructor"
    },
    {
      "anonymous": false,
      "inputs": [
        {
          "indexed": false,
          "name": "_voter",
          "type": "address"
        },
        {
          "indexed": false,
          "name": "_fullSize",
          "type": "uint256"
        }
      ],
      "name": "Deposit",
      "type": "event"
    },
    {
      "anonymous": false,
      "inputs": [
        {
          "indexed": false,
          "name": "_name",
          "type": "string"
        }
      ],
      "name": "NewRegistry",
      "type": "event"
    },
    {
      "anonymous": false,
      "inputs": [
        {
          "indexed": false,
          "name": "_name",
          "type": "string"
        },
        {
          "indexed": false,
          "name": "_voter",
          "type": "address"
        },
        {
          "indexed": false,
          "name": "_candidates",
          "type": "address[]"
        },
        {
          "indexed": false,
          "name": "_amounts",
          "type": "uint256[]"
        }
      ],
      "name": "Vote",
      "type": "event"
    },
    {
      "anonymous": false,
      "inputs": [
        {
          "indexed": false,
          "name": "_voter",
          "type": "address"
        },
        {
          "indexed": false,
          "name": "_amountWithdraw",
          "type": "uint256"
        }
      ],
      "name": "Withdrawal",
      "type": "event"
    },
    {
      "constant": false,
      "inputs": [
        {
          "name": "_registryName",
          "type": "string"
        },
        {
          "name": "_candidates",
          "type": "address[]"
        },
        {
          "name": "_amounts",
          "type": "uint256[]"
        }
      ],
      "name": "voteService",
      "outputs": [],
      "payable": false,
      "stateMutability": "nonpayable",
      "type": "function"
    },
    {
      "constant": false,
      "inputs": [
        {
          "name": "_registryName",
          "type": "string"
        },
        {
          "name": "_candidates",
          "type": "address[]"
        },
        {
          "name": "_amounts",
          "type": "uint256[]"
        }
      ],
      "name": "voteServiceLockup",
      "outputs": [],
      "payable": false,
      "stateMutability": "nonpayable",
      "type": "function"
    },
    {
      "constant": false,
      "inputs": [
        {
          "name": "_registryName",
          "type": "string"
        }
      ],
      "name": "voteServiceForNewRegistry",
      "outputs": [],
      "payable": false,
      "stateMutability": "nonpayable",
      "type": "function"
    },
    {
      "constant": false,
      "inputs": [
        {
          "name": "_registryName",
          "type": "string"
        }
      ],
      "name": "voteServiceLockupForNewRegistry",
      "outputs": [],
      "payable": false,
      "stateMutability": "nonpayable",
      "type": "function"
    },
    {
      "constant": false,
      "inputs": [
        {
          "name": "_amount",
          "type": "uint256"
        }
      ],
      "name": "withdraw",
      "outputs": [],
      "payable": false,
      "stateMutability": "nonpayable",
      "type": "function"
    },
    {
      "constant": true,
      "inputs": [
        {
          "name": "_registryName",
          "type": "string"
        }
      ],
      "name": "isRegistryExist",
      "outputs": [
        {
          "name": "",
          "type": "bool"
        }
      ],
      "payable": false,
      "stateMutability": "view",
      "type": "function"
    },
    {
      "constant": false,
      "inputs": [
        {
          "name": "_additionAmount",
          "type": "uint256"
        }
      ],
      "name": "makeDeposit",
      "outputs": [],
      "payable": false,
      "stateMutability": "nonpayable",
      "type": "function"
    },
    {
      "constant": false,
      "inputs": [
        {
          "name": "_newAmount",
          "type": "uint256"
        }
      ],
      "name": "setVoteWeightInLockupPeriod",
      "outputs": [],
      "payable": false,
      "stateMutability": "nonpayable",
      "type": "function"
    }
  ],
  "bytecode": "0x60806040523480156200001157600080fd5b5060405160208062001c4383398101806040528101908080519060200190929190505050806000806101000a81548173ffffffffffffffffffffffffffffffffffffffff021916908373ffffffffffffffffffffffffffffffffffffffff160217905550620000c46040805190810160405280600881526020017f6f6273657276657200000000000000000000000000000000000000000000000081525062000169640100000000026401000000009004565b620001136040805190810160405280600881526020017f70726f766964657200000000000000000000000000000000000000000000000081525062000169640100000000026401000000009004565b620001626040805190810160405280600381526020017f687562000000000000000000000000000000000000000000000000000000000081525062000169640100000000026401000000009004565b506200031f565b600015156002826040518082805190602001908083835b602083101515620001a7578051825260208201915060208101905060208303925062000180565b6001836020036101000a038019825116818451168082178552505050505050905001915050908152602001604051809103902060009054906101000a900460ff161515141515620001f757600080fd5b60016002826040518082805190602001908083835b6020831015156200023357805182526020820191506020810190506020830392506200020c565b6001836020036101000a038019825116818451168082178552505050505050905001915050908152602001604051809103902060006101000a81548160ff0219169083151502179055507f1839b8ba3450f0814dbd07b9058a05bb3c025fe253d1b84a8c36d35ecf6153c2816040518080602001828103825283818151815260200191508051906020019080838360005b83811015620002e1578082015181840152602081019050620002c4565b50505050905090810190601f1680156200030f5780820380516001836020036101000a031916815260200191505b509250505060405180910390a150565b611914806200032f6000396000f300608060405260043610610099576000357c0100000000000000000000000000000000000000000000000000000000900463ffffffff168063059a500c1461009e5780632e1a7d4d146100cb57806361d57efd146100f85780636bdde1e4146101e75780636df132f4146102505780638d79e0aa146102d1578063a2377be5146103c0578063f340fa0114610429578063f9ba35dc14610480575b600080fd5b3480156100aa57600080fd5b506100c9600480360381019080803590602001909291905050506104ad565b005b3480156100d757600080fd5b506100f660048036038101908080359060200190929190505050610825565b005b34801561010457600080fd5b506101e5600480360381019080803590602001908201803590602001908080601f01602080910402602001604051908101604052809392919081815260200183838082843782019150505050505091929192908035906020019082018035906020019080806020026020016040519081016040528093929190818152602001838360200280828437820191505050505050919291929080359060200190820180359060200190808060200260200160405190810160405280939291908181526020018383602002808284378201915050505050509192919290505050610a82565b005b3480156101f357600080fd5b5061024e600480360381019080803590602001908201803590602001908080601f0160208091040260200160405190810160405280939291908181526020018383808284378201915050505050509192919290505050610c9b565b005b34801561025c57600080fd5b506102b7600480360381019080803590602001908201803590602001908080601f0160208091040260200160405190810160405280939291908181526020018383808284378201915050505050509192919290505050610df7565b604051808215151515815260200191505060405180910390f35b3480156102dd57600080fd5b506103be600480360381019080803590602001908201803590602001908080601f01602080910402602001604051908101604052809392919081815260200183838082843782019150505050505091929192908035906020019082018035906020019080806020026020016040519081016040528093929190818152602001838360200280828437820191505050505050919291929080359060200190820180359060200190808060200260200160405190810160405280939291908181526020018383602002808284378201915050505050509192919290505050610e79565b005b3480156103cc57600080fd5b50610427600480360381019080803590602001908201803590602001908080601f0160208091040260200160405190810160405280939291908181526020018383808284378201915050505050509192919290505050610fd9565b005b34801561043557600080fd5b5061046a600480360381019080803573ffffffffffffffffffffffffffffffffffffffff1690602001909291905050506111ee565b6040518082815260200191505060405180910390f35b34801561048c57600080fd5b506104ab60048036038101908080359060200190929190505050611206565b005b6000809054906101000a900473ffffffffffffffffffffffffffffffffffffffff1673ffffffffffffffffffffffffffffffffffffffff166359f3bc44336040518263ffffffff167c0100000000000000000000000000000000000000000000000000000000028152600401808273ffffffffffffffffffffffffffffffffffffffff1673ffffffffffffffffffffffffffffffffffffffff168152602001915050602060405180830381600087803b15801561056957600080fd5b505af115801561057d573d6000803e3d6000fd5b505050506040513d602081101561059357600080fd5b810190808051906020019092919050505015156105af57600080fd5b61060181600160003373ffffffffffffffffffffffffffffffffffffffff1673ffffffffffffffffffffffffffffffffffffffff1681526020019081526020016000205461147c90919063ffffffff16565b600160003373ffffffffffffffffffffffffffffffffffffffff1673ffffffffffffffffffffffffffffffffffffffff168152602001908152602001600020819055506000809054906101000a900473ffffffffffffffffffffffffffffffffffffffff1673ffffffffffffffffffffffffffffffffffffffff166323b872dd3330846040518463ffffffff167c0100000000000000000000000000000000000000000000000000000000028152600401808473ffffffffffffffffffffffffffffffffffffffff1673ffffffffffffffffffffffffffffffffffffffff1681526020018373ffffffffffffffffffffffffffffffffffffffff1673ffffffffffffffffffffffffffffffffffffffff1681526020018281526020019350505050602060405180830381600087803b15801561073c57600080fd5b505af1158015610750573d6000803e3d6000fd5b505050506040513d602081101561076657600080fd5b8101908080519060200190929190505050507fe1fffcc4923d04b559f4d29a8bfc6cda04eb5b0d3c460751c2402c5c5cc9109c33600160003373ffffffffffffffffffffffffffffffffffffffff1673ffffffffffffffffffffffffffffffffffffffff16815260200190815260200160002054604051808373ffffffffffffffffffffffffffffffffffffffff1673ffffffffffffffffffffffffffffffffffffffff1681526020018281526020019250505060405180910390a150565b80600160003373ffffffffffffffffffffffffffffffffffffffff1673ffffffffffffffffffffffffffffffffffffffff16815260200190815260200160002054101580156108745750600081115b151561087f57600080fd5b6000809054906101000a900473ffffffffffffffffffffffffffffffffffffffff1673ffffffffffffffffffffffffffffffffffffffff1663a9059cbb33836040518363ffffffff167c0100000000000000000000000000000000000000000000000000000000028152600401808373ffffffffffffffffffffffffffffffffffffffff1673ffffffffffffffffffffffffffffffffffffffff16815260200182815260200192505050602060405180830381600087803b15801561094357600080fd5b505af1158015610957573d6000803e3d6000fd5b505050506040513d602081101561096d57600080fd5b8101908080519060200190929190505050506109d181600160003373ffffffffffffffffffffffffffffffffffffffff1673ffffffffffffffffffffffffffffffffffffffff1681526020019081526020016000205461149d90919063ffffffff16565b600160003373ffffffffffffffffffffffffffffffffffffffff1673ffffffffffffffffffffffffffffffffffffffff168152602001908152602001600020819055507f7fcf532c15f0a6db0bd6d0e038bea71d30d808c7d98cb3bf7268a95bf5081b653382604051808373ffffffffffffffffffffffffffffffffffffffff1673ffffffffffffffffffffffffffffffffffffffff1681526020018281526020019250505060405180910390a150565b6000809054906101000a900473ffffffffffffffffffffffffffffffffffffffff1673ffffffffffffffffffffffffffffffffffffffff166359f3bc44336040518263ffffffff167c0100000000000000000000000000000000000000000000000000000000028152600401808273ffffffffffffffffffffffffffffffffffffffff1673ffffffffffffffffffffffffffffffffffffffff168152602001915050602060405180830381600087803b158015610b3e57600080fd5b505af1158015610b52573d6000803e3d6000fd5b505050506040513d6020811015610b6857600080fd5b8101908080519060200190929190505050151515610b8557600080fd5b60008060009054906101000a900473ffffffffffffffffffffffffffffffffffffffff1673ffffffffffffffffffffffffffffffffffffffff166370a08231336040518263ffffffff167c0100000000000000000000000000000000000000000000000000000000028152600401808273ffffffffffffffffffffffffffffffffffffffff1673ffffffffffffffffffffffffffffffffffffffff168152602001915050602060405180830381600087803b158015610c4357600080fd5b505af1158015610c57573d6000803e3d6000fd5b505050506040513d6020811015610c6d57600080fd5b810190808051906020019092919050505010151515610c8b57600080fd5b610c968383836114be565b505050565b6000809054906101000a900473ffffffffffffffffffffffffffffffffffffffff1673ffffffffffffffffffffffffffffffffffffffff166359f3bc44336040518263ffffffff167c0100000000000000000000000000000000000000000000000000000000028152600401808273ffffffffffffffffffffffffffffffffffffffff1673ffffffffffffffffffffffffffffffffffffffff168152602001915050602060405180830381600087803b158015610d5757600080fd5b505af1158015610d6b573d6000803e3d6000fd5b505050506040513d6020811015610d8157600080fd5b81019080805190602001909291905050501515610d9d57600080fd5b6000600160003373ffffffffffffffffffffffffffffffffffffffff1673ffffffffffffffffffffffffffffffffffffffff16815260200190815260200160002054111515610deb57600080fd5b610df4816116e1565b50565b60006002826040518082805190602001908083835b602083101515610e315780518252602082019150602081019050602083039250610e0c565b6001836020036101000a038019825116818451168082178552505050505050905001915050908152602001604051809103902060009054906101000a900460ff169050919050565b6000809054906101000a900473ffffffffffffffffffffffffffffffffffffffff1673ffffffffffffffffffffffffffffffffffffffff166359f3bc44336040518263ffffffff167c0100000000000000000000000000000000000000000000000000000000028152600401808273ffffffffffffffffffffffffffffffffffffffff1673ffffffffffffffffffffffffffffffffffffffff168152602001915050602060405180830381600087803b158015610f3557600080fd5b505af1158015610f49573d6000803e3d6000fd5b505050506040513d6020811015610f5f57600080fd5b81019080805190602001909291905050501515610f7b57600080fd5b6000600160003373ffffffffffffffffffffffffffffffffffffffff1673ffffffffffffffffffffffffffffffffffffffff16815260200190815260200160002054111515610fc957600080fd5b610fd48383836114be565b505050565b6000809054906101000a900473ffffffffffffffffffffffffffffffffffffffff1673ffffffffffffffffffffffffffffffffffffffff166359f3bc44336040518263ffffffff167c0100000000000000000000000000000000000000000000000000000000028152600401808273ffffffffffffffffffffffffffffffffffffffff1673ffffffffffffffffffffffffffffffffffffffff168152602001915050602060405180830381600087803b15801561109557600080fd5b505af11580156110a9573d6000803e3d6000fd5b505050506040513d60208110156110bf57600080fd5b81019080805190602001909291905050501515156110dc57600080fd5b60008060009054906101000a900473ffffffffffffffffffffffffffffffffffffffff1673ffffffffffffffffffffffffffffffffffffffff166370a08231336040518263ffffffff167c0100000000000000000000000000000000000000000000000000000000028152600401808273ffffffffffffffffffffffffffffffffffffffff1673ffffffffffffffffffffffffffffffffffffffff168152602001915050602060405180830381600087803b15801561119a57600080fd5b505af11580156111ae573d6000803e3d6000fd5b505050506040513d60208110156111c457600080fd5b8101908080519060200190929190505050101515156111e257600080fd5b6111eb816116e1565b50565b60016020528060005260406000206000915090505481565b6000809054906101000a900473ffffffffffffffffffffffffffffffffffffffff1673ffffffffffffffffffffffffffffffffffffffff166359f3bc44336040518263ffffffff167c0100000000000000000000000000000000000000000000000000000000028152600401808273ffffffffffffffffffffffffffffffffffffffff1673ffffffffffffffffffffffffffffffffffffffff168152602001915050602060405180830381600087803b1580156112c257600080fd5b505af11580156112d6573d6000803e3d6000fd5b505050506040513d60208110156112ec57600080fd5b810190808051906020019092919050505015151561130957600080fd5b806000809054906101000a900473ffffffffffffffffffffffffffffffffffffffff1673ffffffffffffffffffffffffffffffffffffffff166370a08231336040518263ffffffff167c0100000000000000000000000000000000000000000000000000000000028152600401808273ffffffffffffffffffffffffffffffffffffffff1673ffffffffffffffffffffffffffffffffffffffff168152602001915050602060405180830381600087803b1580156113c657600080fd5b505af11580156113da573d6000803e3d6000fd5b505050506040513d60208110156113f057600080fd5b81019080805190602001909291905050501015151561140e57600080fd5b7fe1fffcc4923d04b559f4d29a8bfc6cda04eb5b0d3c460751c2402c5c5cc9109c3382604051808373ffffffffffffffffffffffffffffffffffffffff1673ffffffffffffffffffffffffffffffffffffffff1681526020018281526020019250505060405180910390a150565b600080828401905083811015151561149357600080fd5b8091505092915050565b6000808383111515156114af57600080fd5b82840390508091505092915050565b826002816040518082805190602001908083835b6020831015156114f757805182526020820191506020810190506020830392506114d2565b6001836020036101000a038019825116818451168082178552505050505050905001915050908152602001604051809103902060009054906101000a900460ff16151561154357600080fd5b6014835111158015611556575081518351145b151561156157600080fd5b61271061156d8361188f565b14151561157957600080fd5b7f1eb868ecffe141add0e3ce450f5d9282ec08468c956486b7d5ad66fa61d1676c8433858560405180806020018573ffffffffffffffffffffffffffffffffffffffff1673ffffffffffffffffffffffffffffffffffffffff1681526020018060200180602001848103845288818151815260200191508051906020019080838360005b838110156116185780820151818401526020810190506115fd565b50505050905090810190601f1680156116455780820380516001836020036101000a031916815260200191505b50848103835286818151815260200191508051906020019060200280838360005b83811015611681578082015181840152602081019050611666565b50505050905001848103825285818151815260200191508051906020019060200280838360005b838110156116c35780820151818401526020810190506116a8565b5050505090500197505050505050505060405180910390a150505050565b600015156002826040518082805190602001908083835b60208310151561171d57805182526020820191506020810190506020830392506116f8565b6001836020036101000a038019825116818451168082178552505050505050905001915050908152602001604051809103902060009054906101000a900460ff16151514151561176c57600080fd5b60016002826040518082805190602001908083835b6020831015156117a65780518252602082019150602081019050602083039250611781565b6001836020036101000a038019825116818451168082178552505050505050905001915050908152602001604051809103902060006101000a81548160ff0219169083151502179055507f1839b8ba3450f0814dbd07b9058a05bb3c025fe253d1b84a8c36d35ecf6153c2816040518080602001828103825283818151815260200191508051906020019080838360005b83811015611852578082015181840152602081019050611837565b50505050905090810190601f16801561187f5780820380516001836020036101000a031916815260200191505b509250505060405180910390a150565b6000806000809150600090505b83518110156118de576118cf84828151811015156118b657fe5b906020019060200201518361147c90919063ffffffff16565b9150808060010191505061189c565b81925050509190505600a165627a7a72305820c3626723e09996d5983153d645d85d89f2eb1733ad50651e1a0bd53b144f896d0029",
  "source": "pragma solidity ^0.4.24;\n\nimport \"./GEOToken.sol\";\nimport \"./math/SafeMath8.sol\";\nimport \"./math/SafeMath.sol\";\nimport \"./math/SafeMath16.sol\";\n\ncontract GeoServiceRegistry {\n    using SafeMath8 for uint8;\n    using SafeMath16 for uint16;\n    using SafeMath for uint256;\n\n    // STORAGE //\n    GEOToken private token;\n\n    // The balance of the user in tokens, which is deposited on the contract\n    mapping(address => uint256) public deposit;\n\n    // (registry name) => (exist)\n    mapping(string => bool) private existingRegistries;\n\n    // STORAGE END //\n\n    /* EVENTS\n    */\n\n    event Deposit(address _voter, uint256 _fullSize);\n    event NewRegistry(string _name);\n    event Vote(string _name, address _voter, address[] _candidates, uint256[] _amounts);\n    event Withdrawal(address _voter, uint256 _amountWithdraw);\n\n    /* MODIFIERS\n    */\n\n    /**\n    * @dev Modifier to make a function callable only if registry exist.\n    */\n    modifier registryExist(\n        string _name)\n    {\n        require(existingRegistries[_name]);\n        _;\n    }\n\n    /* CONSTRUCTOR\n    */\n    constructor(\n        address _geoAddress)\n    public\n    {\n        token = GEOToken(_geoAddress);\n        _voteForNewRegistry(\"observer\");\n        _voteForNewRegistry(\"provider\");\n        _voteForNewRegistry(\"hub\");\n    }\n\n    /* FUNCTIONS\n    */\n\n    /**\n    * @dev Vote for new registry.\n    * After collect target count votes, create a registry.\n    * @param _registryName Proposed registry name.\n    */\n    function _voteForNewRegistry(\n        string _registryName)\n    private\n    {\n        require(existingRegistries[_registryName] == false);\n        existingRegistries[_registryName] = true;\n        emit NewRegistry(_registryName);\n    }\n\n    /**\n    * @dev Vote for candidate in registry.\n    * Maximum candidates 20\n    * @param _registryName Exist registry name.\n    * @param _candidates List of candidates.\n    * @param _amounts List of votes for corresponding candidates in tokens.\n    */\n    function _vote(\n        string _registryName,\n        address[] _candidates,\n        uint256[] _amounts)\n    registryExist(_registryName)\n    private\n    {\n        require(_candidates.length <= 20 && _candidates.length == _amounts.length);\n        require(sumOfArray(_amounts) == 10000);\n        emit Vote(_registryName, msg.sender, _candidates, _amounts);\n    }\n\n    /**\n    * @dev Vote for candidate in registry.\n    * Method for vote after lockup period.\n    * Maximum candidates 10.\n    * Sender must approve tokens for deposit to contract address.\n    * @param _registryName Exist registry name.\n    * @param _candidates List of candidates.\n    * @param _amounts List of votes for corresponding candidates in tokens.\n    */\n    function voteService(\n        string _registryName,\n        address[] _candidates,\n        uint256[] _amounts)\n    public\n    {\n        require(token.isLockupExpired(msg.sender));\n        require(deposit[msg.sender] > 0);\n        _vote(_registryName, _candidates, _amounts);\n    }\n\n\n    /**\n    * @dev Vote for candidate in registry.\n    * Method for vote in lockup period.\n    * Maximum candidates 10.\n    * @param _registryName Exist registry name.\n    * @param _candidates List of candidates.\n    * @param _amounts List of votes for corresponding candidates in tokens.\n    */\n    function voteServiceLockup(\n        string _registryName,\n        address[] _candidates,\n        uint256[] _amounts)\n    public\n    {\n        require(!token.isLockupExpired(msg.sender));\n        require(token.balanceOf(msg.sender) >= 0);\n        _vote(_registryName, _candidates, _amounts);\n    }\n\n    /**\n    * @dev Vote for new registry.\n    * Method for vote after lockup period.\n    * @param _registryName Proposed registry name.\n    */\n    function voteServiceForNewRegistry(\n        string _registryName)\n    public\n    {\n        require(token.isLockupExpired(msg.sender));\n        require(deposit[msg.sender] > 0);\n        _voteForNewRegistry(_registryName);\n    }\n\n\n    /**\n    * @dev Vote for new registry.\n    * Method for vote in lockup period.\n    * @param _registryName Proposed registry name.\n    */\n    function voteServiceLockupForNewRegistry(\n        string _registryName)\n    public\n    {\n        require(!token.isLockupExpired(msg.sender));\n        require(token.balanceOf(msg.sender) >= 0);\n        _voteForNewRegistry(_registryName);\n    }\n\n    /**\n    * @dev Transfer tokens back to deposit creator.\n    * @param _amount Withdraw part or full deposit.\n    */\n    function withdraw(\n        uint _amount)\n    public\n    {\n        require(deposit[msg.sender] >= _amount && _amount > 0);\n        token.transfer(msg.sender, _amount);\n        deposit[msg.sender] = deposit[msg.sender].sub(_amount);\n        emit Withdrawal(msg.sender, _amount);\n    }\n\n    /**\n    * @dev Check for the existence of a register.\n    * @param _registryName Exist registry name.\n    * @return bool True if registry exist.\n    */\n    function isRegistryExist(\n        string _registryName)\n    view\n    public\n    returns (bool)\n    {\n        return existingRegistries[_registryName];\n    }\n\n    /**\n    * @dev Calculate sum of input array.\n    * @param _array Array of uint256.\n    * @return uint256 Total sum.\n    */\n    function sumOfArray(\n        uint256[] _array)\n    pure\n    private\n    returns (uint256)\n    {\n        uint256 amount = 0;\n        for (uint256 n = 0; n < _array.length; n++) {\n            amount = amount.add(_array[n]);\n        }\n        return amount;\n    }\n\n    function makeDeposit(\n        uint256 _additionAmount)\n    public\n    {\n        require(token.isLockupExpired(msg.sender));\n        deposit[msg.sender] = deposit[msg.sender].add(_additionAmount);\n        token.transferFrom(msg.sender, address(this), _additionAmount);\n        emit Deposit(msg.sender, deposit[msg.sender]);\n    }\n\n    function setVoteWeightInLockupPeriod(\n        uint256 _newAmount)\n    public\n    {\n        require(!token.isLockupExpired(msg.sender));\n        require(token.balanceOf(msg.sender) >= _newAmount);\n        emit Deposit(msg.sender, _newAmount);\n    }\n}\n",
  "sourcePath": "/home/paddle-5/workspace/geo-protocol/contracts/GeoServiceRegistry.sol",
  "compiler": {
    "name": "solc",
    "version": "0.4.24+commit.e67f0147.Emscripten.clang"
  },
  "schemaVersion": "2.0.1",
  "updatedAt": "2019-01-21T07:53:07.155Z"
}