{
  "contractName": "GEOToken",
  "abi": [
    {
      "constant": true,
      "inputs": [],
      "name": "decimals",
      "outputs": [
        {
          "name": "",
          "type": "uint8"
        }
      ],
      "payable": false,
      "stateMutability": "view",
      "type": "function"
    },
    {
      "constant": true,
      "inputs": [],
      "name": "lockupExpired",
      "outputs": [
        {
          "name": "",
          "type": "uint256"
        }
      ],
      "payable": false,
      "stateMutability": "view",
      "type": "function"
    },
    {
      "constant": false,
      "inputs": [],
      "name": "renounceOwnership",
      "outputs": [],
      "payable": false,
      "stateMutability": "nonpayable",
      "type": "function"
    },
    {
      "constant": true,
      "inputs": [],
      "name": "owner",
      "outputs": [
        {
          "name": "",
          "type": "address"
        }
      ],
      "payable": false,
      "stateMutability": "view",
      "type": "function"
    },
    {
      "constant": true,
      "inputs": [],
      "name": "isOwner",
      "outputs": [
        {
          "name": "",
          "type": "bool"
        }
      ],
      "payable": false,
      "stateMutability": "view",
      "type": "function"
    },
    {
      "constant": true,
      "inputs": [],
      "name": "symbol",
      "outputs": [
        {
          "name": "",
          "type": "string"
        }
      ],
      "payable": false,
      "stateMutability": "view",
      "type": "function"
    },
    {
      "constant": false,
      "inputs": [
        {
          "name": "newOwner",
          "type": "address"
        }
      ],
      "name": "transferOwnership",
      "outputs": [],
      "payable": false,
      "stateMutability": "nonpayable",
      "type": "function"
    },
    {
      "inputs": [],
      "payable": false,
      "stateMutability": "nonpayable",
      "type": "constructor"
    },
    {
      "anonymous": false,
      "inputs": [
        {
          "indexed": true,
          "name": "previousOwner",
          "type": "address"
        },
        {
          "indexed": true,
          "name": "newOwner",
          "type": "address"
        }
      ],
      "name": "OwnershipTransferred",
      "type": "event"
    },
    {
      "anonymous": false,
      "inputs": [
        {
          "indexed": true,
          "name": "from",
          "type": "address"
        },
        {
          "indexed": true,
          "name": "to",
          "type": "address"
        },
        {
          "indexed": false,
          "name": "value",
          "type": "uint256"
        }
      ],
      "name": "Transfer",
      "type": "event"
    },
    {
      "anonymous": false,
      "inputs": [
        {
          "indexed": true,
          "name": "owner",
          "type": "address"
        },
        {
          "indexed": true,
          "name": "spender",
          "type": "address"
        },
        {
          "indexed": false,
          "name": "value",
          "type": "uint256"
        }
      ],
      "name": "Approval",
      "type": "event"
    },
    {
      "constant": true,
      "inputs": [],
      "name": "totalSupply",
      "outputs": [
        {
          "name": "",
          "type": "uint256"
        }
      ],
      "payable": false,
      "stateMutability": "view",
      "type": "function"
    },
    {
      "constant": true,
      "inputs": [
        {
          "name": "owner",
          "type": "address"
        }
      ],
      "name": "balanceOf",
      "outputs": [
        {
          "name": "",
          "type": "uint256"
        }
      ],
      "payable": false,
      "stateMutability": "view",
      "type": "function"
    },
    {
      "constant": true,
      "inputs": [
        {
          "name": "owner",
          "type": "address"
        },
        {
          "name": "spender",
          "type": "address"
        }
      ],
      "name": "allowance",
      "outputs": [
        {
          "name": "",
          "type": "uint256"
        }
      ],
      "payable": false,
      "stateMutability": "view",
      "type": "function"
    },
    {
      "constant": false,
      "inputs": [
        {
          "name": "to",
          "type": "address"
        },
        {
          "name": "value",
          "type": "uint256"
        }
      ],
      "name": "transfer",
      "outputs": [
        {
          "name": "",
          "type": "bool"
        }
      ],
      "payable": false,
      "stateMutability": "nonpayable",
      "type": "function"
    },
    {
      "constant": false,
      "inputs": [
        {
          "name": "spender",
          "type": "address"
        },
        {
          "name": "value",
          "type": "uint256"
        }
      ],
      "name": "approve",
      "outputs": [
        {
          "name": "",
          "type": "bool"
        }
      ],
      "payable": false,
      "stateMutability": "nonpayable",
      "type": "function"
    },
    {
      "constant": false,
      "inputs": [
        {
          "name": "from",
          "type": "address"
        },
        {
          "name": "to",
          "type": "address"
        },
        {
          "name": "value",
          "type": "uint256"
        }
      ],
      "name": "transferFrom",
      "outputs": [
        {
          "name": "",
          "type": "bool"
        }
      ],
      "payable": false,
      "stateMutability": "nonpayable",
      "type": "function"
    },
    {
      "constant": false,
      "inputs": [
        {
          "name": "spender",
          "type": "address"
        },
        {
          "name": "addedValue",
          "type": "uint256"
        }
      ],
      "name": "increaseAllowance",
      "outputs": [
        {
          "name": "",
          "type": "bool"
        }
      ],
      "payable": false,
      "stateMutability": "nonpayable",
      "type": "function"
    },
    {
      "constant": false,
      "inputs": [
        {
          "name": "spender",
          "type": "address"
        },
        {
          "name": "subtractedValue",
          "type": "uint256"
        }
      ],
      "name": "decreaseAllowance",
      "outputs": [
        {
          "name": "",
          "type": "bool"
        }
      ],
      "payable": false,
      "stateMutability": "nonpayable",
      "type": "function"
    },
    {
      "constant": false,
      "inputs": [
        {
          "name": "_who",
          "type": "address"
        }
      ],
      "name": "allowTransferInLockupPeriod",
      "outputs": [],
      "payable": false,
      "stateMutability": "nonpayable",
      "type": "function"
    },
    {
      "constant": false,
      "inputs": [
        {
          "name": "_who",
          "type": "address"
        }
      ],
      "name": "denyTransferInLockupPeriod",
      "outputs": [],
      "payable": false,
      "stateMutability": "nonpayable",
      "type": "function"
    },
    {
      "constant": false,
      "inputs": [
        {
          "name": "_who",
          "type": "address"
        },
        {
          "name": "_time",
          "type": "uint256"
        }
      ],
      "name": "setIndividualLockupExpireTime",
      "outputs": [],
      "payable": false,
      "stateMutability": "nonpayable",
      "type": "function"
    },
    {
      "constant": true,
      "inputs": [
        {
          "name": "_who",
          "type": "address"
        }
      ],
      "name": "isLockupExpired",
      "outputs": [
        {
          "name": "",
          "type": "bool"
        }
      ],
      "payable": false,
      "stateMutability": "view",
      "type": "function"
    },
    {
      "constant": false,
      "inputs": [
        {
          "name": "account",
          "type": "address"
        },
        {
          "name": "value",
          "type": "uint256"
        }
      ],
      "name": "mint",
      "outputs": [],
      "payable": false,
      "stateMutability": "nonpayable",
      "type": "function"
    },
    {
      "constant": false,
      "inputs": [
        {
          "name": "account",
          "type": "address"
        },
        {
          "name": "value",
          "type": "uint256"
        }
      ],
      "name": "burn",
      "outputs": [],
      "payable": false,
      "stateMutability": "nonpayable",
      "type": "function"
    }
  ],
  "bytecode": "0x6080604052662386f26fc100006003556040805190810160405280600381526020017f47454f0000000000000000000000000000000000000000000000000000000000815250600490805190602001906200005c9291906200027c565b506008600560006101000a81548160ff021916908360ff1602179055503480156200008657600080fd5b50336000806101000a81548173ffffffffffffffffffffffffffffffffffffffff021916908373ffffffffffffffffffffffffffffffffffffffff1602179055506000809054906101000a900473ffffffffffffffffffffffffffffffffffffffff1673ffffffffffffffffffffffffffffffffffffffff16600073ffffffffffffffffffffffffffffffffffffffff167f8be0079c531659141344cd1fd0a4f28419497f9722a3daafe3b4186f6b6457e060405160405180910390a36301dfe20042016006819055506200016a33620001b6640100000000026401000000009004565b600354600160003373ffffffffffffffffffffffffffffffffffffffff1673ffffffffffffffffffffffffffffffffffffffff168152602001908152602001600020819055506200032b565b620001cf62000225640100000000026401000000009004565b1515620001db57600080fd5b60014203600760008373ffffffffffffffffffffffffffffffffffffffff1673ffffffffffffffffffffffffffffffffffffffff1681526020019081526020016000208190555050565b60008060009054906101000a900473ffffffffffffffffffffffffffffffffffffffff1673ffffffffffffffffffffffffffffffffffffffff163373ffffffffffffffffffffffffffffffffffffffff1614905090565b828054600181600116156101000203166002900490600052602060002090601f016020900481019282601f10620002bf57805160ff1916838001178555620002f0565b82800160010185558215620002f0579182015b82811115620002ef578251825591602001919060010190620002d2565b5b509050620002ff919062000303565b5090565b6200032891905b80821115620003245760008160009055506001016200030a565b5090565b90565b611a94806200033b6000396000f30060806040526004361061011d576000357c0100000000000000000000000000000000000000000000000000000000900463ffffffff168063095ea7b31461012257806318160ddd1461018757806323b872dd146101b2578063313ce56714610237578063395093511461026857806340c10f19146102cd578063561522811461031a57806359f3bc441461035d5780635ae92064146103b857806370a08231146103e3578063715018a61461043a5780638da5cb5b146104515780638f32d59b146104a857806395d89b41146104d75780639dc29fac14610567578063a3a8d423146105b4578063a457c2d714610601578063a9059cbb14610666578063b1cade46146106cb578063dd62ed3e1461070e578063f2fde38b14610785575b600080fd5b34801561012e57600080fd5b5061016d600480360381019080803573ffffffffffffffffffffffffffffffffffffffff169060200190929190803590602001909291905050506107c8565b604051808215151515815260200191505060405180910390f35b34801561019357600080fd5b5061019c61090a565b6040518082815260200191505060405180910390f35b3480156101be57600080fd5b5061021d600480360381019080803573ffffffffffffffffffffffffffffffffffffffff169060200190929190803573ffffffffffffffffffffffffffffffffffffffff16906020019092919080359060200190929190505050610914565b604051808215151515815260200191505060405180910390f35b34801561024357600080fd5b5061024c610b1c565b604051808260ff1660ff16815260200191505060405180910390f35b34801561027457600080fd5b506102b3600480360381019080803573ffffffffffffffffffffffffffffffffffffffff16906020019092919080359060200190929190505050610b2f565b604051808215151515815260200191505060405180910390f35b3480156102d957600080fd5b50610318600480360381019080803573ffffffffffffffffffffffffffffffffffffffff16906020019092919080359060200190929190505050610d7b565b005b34801561032657600080fd5b5061035b600480360381019080803573ffffffffffffffffffffffffffffffffffffffff169060200190929190505050610ee4565b005b34801561036957600080fd5b5061039e600480360381019080803573ffffffffffffffffffffffffffffffffffffffff169060200190929190505050610f3f565b604051808215151515815260200191505060405180910390f35b3480156103c457600080fd5b506103cd610fdf565b6040518082815260200191505060405180910390f35b3480156103ef57600080fd5b50610424600480360381019080803573ffffffffffffffffffffffffffffffffffffffff169060200190929190505050610fe5565b6040518082815260200191505060405180910390f35b34801561044657600080fd5b5061044f61102e565b005b34801561045d57600080fd5b50610466611100565b604051808273ffffffffffffffffffffffffffffffffffffffff1673ffffffffffffffffffffffffffffffffffffffff16815260200191505060405180910390f35b3480156104b457600080fd5b506104bd611129565b604051808215151515815260200191505060405180910390f35b3480156104e357600080fd5b506104ec611180565b6040518080602001828103825283818151815260200191508051906020019080838360005b8381101561052c578082015181840152602081019050610511565b50505050905090810190601f1680156105595780820380516001836020036101000a031916815260200191505b509250505060405180910390f35b34801561057357600080fd5b506105b2600480360381019080803573ffffffffffffffffffffffffffffffffffffffff1690602001909291908035906020019092919050505061121e565b005b3480156105c057600080fd5b506105ff600480360381019080803573ffffffffffffffffffffffffffffffffffffffff16906020019092919080359060200190929190505050611387565b005b34801561060d57600080fd5b5061064c600480360381019080803573ffffffffffffffffffffffffffffffffffffffff169060200190929190803590602001909291905050506113e2565b604051808215151515815260200191505060405180910390f35b34801561067257600080fd5b506106b1600480360381019080803573ffffffffffffffffffffffffffffffffffffffff1690602001909291908035906020019092919050505061162e565b604051808215151515815260200191505060405180910390f35b3480156106d757600080fd5b5061070c600480360381019080803573ffffffffffffffffffffffffffffffffffffffff169060200190929190505050611659565b005b34801561071a57600080fd5b5061076f600480360381019080803573ffffffffffffffffffffffffffffffffffffffff169060200190929190803573ffffffffffffffffffffffffffffffffffffffff1690602001909291905050506116b6565b6040518082815260200191505060405180910390f35b34801561079157600080fd5b506107c6600480360381019080803573ffffffffffffffffffffffffffffffffffffffff16906020019092919050505061173d565b005b60006107d333610f3f565b15156107de57600080fd5b600073ffffffffffffffffffffffffffffffffffffffff168373ffffffffffffffffffffffffffffffffffffffff161415151561081a57600080fd5b81600260003373ffffffffffffffffffffffffffffffffffffffff1673ffffffffffffffffffffffffffffffffffffffff16815260200190815260200160002060008573ffffffffffffffffffffffffffffffffffffffff1673ffffffffffffffffffffffffffffffffffffffff168152602001908152602001600020819055508273ffffffffffffffffffffffffffffffffffffffff163373ffffffffffffffffffffffffffffffffffffffff167f8c5be1e5ebec7d5bd14f71427d1e84f3dd0314c0f7b2291e5b200ac8c7c3b925846040518082815260200191505060405180910390a36001905092915050565b6000600354905090565b60006109a582600260008773ffffffffffffffffffffffffffffffffffffffff1673ffffffffffffffffffffffffffffffffffffffff16815260200190815260200160002060003373ffffffffffffffffffffffffffffffffffffffff1673ffffffffffffffffffffffffffffffffffffffff1681526020019081526020016000205461175c90919063ffffffff16565b600260008673ffffffffffffffffffffffffffffffffffffffff1673ffffffffffffffffffffffffffffffffffffffff16815260200190815260200160002060003373ffffffffffffffffffffffffffffffffffffffff1673ffffffffffffffffffffffffffffffffffffffff16815260200190815260200160002081905550610a3084848461177d565b3373ffffffffffffffffffffffffffffffffffffffff168473ffffffffffffffffffffffffffffffffffffffff167f8c5be1e5ebec7d5bd14f71427d1e84f3dd0314c0f7b2291e5b200ac8c7c3b925600260008873ffffffffffffffffffffffffffffffffffffffff1673ffffffffffffffffffffffffffffffffffffffff16815260200190815260200160002060003373ffffffffffffffffffffffffffffffffffffffff1673ffffffffffffffffffffffffffffffffffffffff168152602001908152602001600020546040518082815260200191505060405180910390a3600190509392505050565b600560009054906101000a900460ff1681565b6000610b3a33610f3f565b1515610b4557600080fd5b600073ffffffffffffffffffffffffffffffffffffffff168373ffffffffffffffffffffffffffffffffffffffff1614151515610b8157600080fd5b610c1082600260003373ffffffffffffffffffffffffffffffffffffffff1673ffffffffffffffffffffffffffffffffffffffff16815260200190815260200160002060008673ffffffffffffffffffffffffffffffffffffffff1673ffffffffffffffffffffffffffffffffffffffff1681526020019081526020016000205461194d90919063ffffffff16565b600260003373ffffffffffffffffffffffffffffffffffffffff1673ffffffffffffffffffffffffffffffffffffffff16815260200190815260200160002060008573ffffffffffffffffffffffffffffffffffffffff1673ffffffffffffffffffffffffffffffffffffffff168152602001908152602001600020819055508273ffffffffffffffffffffffffffffffffffffffff163373ffffffffffffffffffffffffffffffffffffffff167f8c5be1e5ebec7d5bd14f71427d1e84f3dd0314c0f7b2291e5b200ac8c7c3b925600260003373ffffffffffffffffffffffffffffffffffffffff1673ffffffffffffffffffffffffffffffffffffffff16815260200190815260200160002060008773ffffffffffffffffffffffffffffffffffffffff1673ffffffffffffffffffffffffffffffffffffffff168152602001908152602001600020546040518082815260200191505060405180910390a36001905092915050565b610d83611129565b1515610d8e57600080fd5b600073ffffffffffffffffffffffffffffffffffffffff168273ffffffffffffffffffffffffffffffffffffffff1614151515610dca57600080fd5b610ddf8160035461194d90919063ffffffff16565b600381905550610e3781600160008573ffffffffffffffffffffffffffffffffffffffff1673ffffffffffffffffffffffffffffffffffffffff1681526020019081526020016000205461194d90919063ffffffff16565b600160008473ffffffffffffffffffffffffffffffffffffffff1673ffffffffffffffffffffffffffffffffffffffff168152602001908152602001600020819055508173ffffffffffffffffffffffffffffffffffffffff16600073ffffffffffffffffffffffffffffffffffffffff167fddf252ad1be2c89b69c2b068fc378daa952ba7f163c4a11628f55a4df523b3ef836040518082815260200191505060405180910390a35050565b610eec611129565b1515610ef757600080fd5b6000600760008373ffffffffffffffffffffffffffffffffffffffff1673ffffffffffffffffffffffffffffffffffffffff1681526020019081526020016000208190555050565b600080600760008473ffffffffffffffffffffffffffffffffffffffff1673ffffffffffffffffffffffffffffffffffffffff16815260200190815260200160002054141515610fd25742600760008473ffffffffffffffffffffffffffffffffffffffff1673ffffffffffffffffffffffffffffffffffffffff16815260200190815260200160002054109050610fda565b426006541090505b919050565b60065481565b6000600160008373ffffffffffffffffffffffffffffffffffffffff1673ffffffffffffffffffffffffffffffffffffffff168152602001908152602001600020549050919050565b611036611129565b151561104157600080fd5b600073ffffffffffffffffffffffffffffffffffffffff166000809054906101000a900473ffffffffffffffffffffffffffffffffffffffff1673ffffffffffffffffffffffffffffffffffffffff167f8be0079c531659141344cd1fd0a4f28419497f9722a3daafe3b4186f6b6457e060405160405180910390a360008060006101000a81548173ffffffffffffffffffffffffffffffffffffffff021916908373ffffffffffffffffffffffffffffffffffffffff160217905550565b60008060009054906101000a900473ffffffffffffffffffffffffffffffffffffffff16905090565b60008060009054906101000a900473ffffffffffffffffffffffffffffffffffffffff1673ffffffffffffffffffffffffffffffffffffffff163373ffffffffffffffffffffffffffffffffffffffff1614905090565b60048054600181600116156101000203166002900480601f0160208091040260200160405190810160405280929190818152602001828054600181600116156101000203166002900480156112165780601f106111eb57610100808354040283529160200191611216565b820191906000526020600020905b8154815290600101906020018083116111f957829003601f168201915b505050505081565b611226611129565b151561123157600080fd5b600073ffffffffffffffffffffffffffffffffffffffff168273ffffffffffffffffffffffffffffffffffffffff161415151561126d57600080fd5b6112828160035461175c90919063ffffffff16565b6003819055506112da81600160008573ffffffffffffffffffffffffffffffffffffffff1673ffffffffffffffffffffffffffffffffffffffff1681526020019081526020016000205461175c90919063ffffffff16565b600160008473ffffffffffffffffffffffffffffffffffffffff1673ffffffffffffffffffffffffffffffffffffffff16815260200190815260200160002081905550600073ffffffffffffffffffffffffffffffffffffffff168273ffffffffffffffffffffffffffffffffffffffff167fddf252ad1be2c89b69c2b068fc378daa952ba7f163c4a11628f55a4df523b3ef836040518082815260200191505060405180910390a35050565b61138f611129565b151561139a57600080fd5b80600760008473ffffffffffffffffffffffffffffffffffffffff1673ffffffffffffffffffffffffffffffffffffffff168152602001908152602001600020819055505050565b60006113ed33610f3f565b15156113f857600080fd5b600073ffffffffffffffffffffffffffffffffffffffff168373ffffffffffffffffffffffffffffffffffffffff161415151561143457600080fd5b6114c382600260003373ffffffffffffffffffffffffffffffffffffffff1673ffffffffffffffffffffffffffffffffffffffff16815260200190815260200160002060008673ffffffffffffffffffffffffffffffffffffffff1673ffffffffffffffffffffffffffffffffffffffff1681526020019081526020016000205461175c90919063ffffffff16565b600260003373ffffffffffffffffffffffffffffffffffffffff1673ffffffffffffffffffffffffffffffffffffffff16815260200190815260200160002060008573ffffffffffffffffffffffffffffffffffffffff1673ffffffffffffffffffffffffffffffffffffffff168152602001908152602001600020819055508273ffffffffffffffffffffffffffffffffffffffff163373ffffffffffffffffffffffffffffffffffffffff167f8c5be1e5ebec7d5bd14f71427d1e84f3dd0314c0f7b2291e5b200ac8c7c3b925600260003373ffffffffffffffffffffffffffffffffffffffff1673ffffffffffffffffffffffffffffffffffffffff16815260200190815260200160002060008773ffffffffffffffffffffffffffffffffffffffff1673ffffffffffffffffffffffffffffffffffffffff168152602001908152602001600020546040518082815260200191505060405180910390a36001905092915050565b600061163933610f3f565b151561164457600080fd5b61164f33848461177d565b6001905092915050565b611661611129565b151561166c57600080fd5b60014203600760008373ffffffffffffffffffffffffffffffffffffffff1673ffffffffffffffffffffffffffffffffffffffff1681526020019081526020016000208190555050565b6000600260008473ffffffffffffffffffffffffffffffffffffffff1673ffffffffffffffffffffffffffffffffffffffff16815260200190815260200160002060008373ffffffffffffffffffffffffffffffffffffffff1673ffffffffffffffffffffffffffffffffffffffff16815260200190815260200160002054905092915050565b611745611129565b151561175057600080fd5b6117598161196e565b50565b60008083831115151561176e57600080fd5b82840390508091505092915050565b600073ffffffffffffffffffffffffffffffffffffffff168273ffffffffffffffffffffffffffffffffffffffff16141515156117b957600080fd5b61180b81600160008673ffffffffffffffffffffffffffffffffffffffff1673ffffffffffffffffffffffffffffffffffffffff1681526020019081526020016000205461175c90919063ffffffff16565b600160008573ffffffffffffffffffffffffffffffffffffffff1673ffffffffffffffffffffffffffffffffffffffff168152602001908152602001600020819055506118a081600160008573ffffffffffffffffffffffffffffffffffffffff1673ffffffffffffffffffffffffffffffffffffffff1681526020019081526020016000205461194d90919063ffffffff16565b600160008473ffffffffffffffffffffffffffffffffffffffff1673ffffffffffffffffffffffffffffffffffffffff168152602001908152602001600020819055508173ffffffffffffffffffffffffffffffffffffffff168373ffffffffffffffffffffffffffffffffffffffff167fddf252ad1be2c89b69c2b068fc378daa952ba7f163c4a11628f55a4df523b3ef836040518082815260200191505060405180910390a3505050565b600080828401905083811015151561196457600080fd5b8091505092915050565b600073ffffffffffffffffffffffffffffffffffffffff168173ffffffffffffffffffffffffffffffffffffffff16141515156119aa57600080fd5b8073ffffffffffffffffffffffffffffffffffffffff166000809054906101000a900473ffffffffffffffffffffffffffffffffffffffff1673ffffffffffffffffffffffffffffffffffffffff167f8be0079c531659141344cd1fd0a4f28419497f9722a3daafe3b4186f6b6457e060405160405180910390a3806000806101000a81548173ffffffffffffffffffffffffffffffffffffffff021916908373ffffffffffffffffffffffffffffffffffffffff160217905550505600a165627a7a72305820dff5e5dd6e89ff19dfbe8a08d41698ed943548ff4ca13ce02ea73d1916df547c0029",
  "source": "pragma solidity ^0.4.24;\n\nimport \"./IERC20.sol\";\nimport \"./math/SafeMath.sol\";\nimport \"./Ownable.sol\";\n\n\n/**\n * @title Standard ERC20 token\n *\n * @dev Implementation of the basic standard token.\n * https://github.com/ethereum/EIPs/blob/master/EIPS/eip-20.md\n * Originally based on code by FirstBlood: https://github.com/Firstbloodio/token/blob/master/smart_contract/FirstBloodToken.sol\n *\n * This implementation emits additional Approval events, allowing applications to reconstruct the allowance status for\n * all accounts just by listening to said events. Note that this isn't required by the specification, and other\n * compliant implementations may not do it.\n */\ncontract GEOToken is IERC20, Ownable {\n    using SafeMath for uint256;\n\n    // STORAGE //\n    mapping(address => uint256) private _balances;\n\n    mapping(address => mapping(address => uint256)) private _allowed;\n\n    uint256 private _totalSupply = 10000000000000000;\n    string public symbol = 'GEO';\n    uint8 public decimals = 8;\n\n    // The end time of the blocking period\n    uint256 public lockupExpired;\n\n    // End time of individual blocking period\n    // If it set and expired, global lock not leverage on transfer\n    mapping(address => uint256) private individualLockupExpireTime;\n\n    // STORAGE END //\n\n    /* CONSTRUCTOR\n    */\n    constructor()\n    public\n    {\n        // WARNING lockup period need be multiple 7 days\n        lockupExpired = now + (364 days);\n        allowTransferInLockupPeriod(msg.sender);\n        _balances[msg.sender] = _totalSupply;\n    }\n\n    /**\n    * @dev Total number of tokens in existence\n    */\n    function totalSupply()\n    public\n    view\n    returns (uint256)\n    {\n        return _totalSupply;\n    }\n\n    /**\n    * @dev Gets the balance of the specified address.\n    * @param owner The address to query the balance of.\n    * @return An uint256 representing the amount owned by the passed address.\n    */\n    function balanceOf(address owner)\n    public\n    view\n    returns (uint256)\n    {\n        return _balances[owner];\n    }\n\n    /**\n     * @dev Function to check the amount of tokens that an owner allowed to a spender.\n     * @param owner address The address which owns the funds.\n     * @param spender address The address which will spend the funds.\n     * @return A uint256 specifying the amount of tokens still available for the spender.\n     */\n    function allowance(\n        address owner,\n        address spender)\n    public\n    view\n    returns (uint256)\n    {\n        return _allowed[owner][spender];\n    }\n\n    /**\n    * @dev Transfer token for a specified address\n    * @param to The address to transfer to.\n    * @param value The amount to be transferred.\n    */\n    function transfer(\n        address to,\n        uint256 value)\n    public\n    returns (bool)\n    {\n        require(isLockupExpired(msg.sender));\n        _transfer(msg.sender, to, value);\n        return true;\n    }\n\n    /**\n     * @dev Approve the passed address to spend the specified amount of tokens on behalf of msg.sender.\n     * Beware that changing an allowance with this method brings the risk that someone may use both the old\n     * and the new allowance by unfortunate transaction ordering. One possible solution to mitigate this\n     * race condition is to first reduce the spender's allowance to 0 and set the desired value afterwards:\n     * https://github.com/ethereum/EIPs/issues/20#issuecomment-263524729\n     * @param spender The address which will spend the funds.\n     * @param value The amount of tokens to be spent.\n     */\n    function approve(\n        address spender,\n        uint256 value)\n    public\n    returns (bool)\n    {\n        require(isLockupExpired(msg.sender));\n        require(spender != address(0));\n\n        _allowed[msg.sender][spender] = value;\n        emit Approval(msg.sender, spender, value);\n        return true;\n    }\n\n    /**\n     * @dev Transfer tokens from one address to another.\n     * Note that while this function emits an Approval event, this is not required as per the specification,\n     * and other compliant implementations may not emit the event.\n     * @param from address The address which you want to send tokens from\n     * @param to address The address which you want to transfer to\n     * @param value uint256 the amount of tokens to be transferred\n     */\n    function transferFrom(\n        address from,\n        address to,\n        uint256 value)\n    public\n    returns (bool)\n    {\n        _allowed[from][msg.sender] = _allowed[from][msg.sender].sub(value);\n        _transfer(from, to, value);\n        emit Approval(from, msg.sender, _allowed[from][msg.sender]);\n        return true;\n    }\n\n    /**\n     * @dev Increase the amount of tokens that an owner allowed to a spender.\n     * approve should be called when allowed_[_spender] == 0. To increment\n     * allowed value is better to use this function to avoid 2 calls (and wait until\n     * the first transaction is mined)\n     * From MonolithDAO Token.sol\n     * Emits an Approval event.\n     * @param spender The address which will spend the funds.\n     * @param addedValue The amount of tokens to increase the allowance by.\n     */\n    function increaseAllowance(\n        address spender,\n        uint256 addedValue)\n    public\n    returns (bool)\n    {\n        require(isLockupExpired(msg.sender));\n        require(spender != address(0));\n\n        _allowed[msg.sender][spender] = _allowed[msg.sender][spender].add(addedValue);\n        emit Approval(msg.sender, spender, _allowed[msg.sender][spender]);\n        return true;\n    }\n\n    /**\n     * @dev Decrease the amount of tokens that an owner allowed to a spender.\n     * approve should be called when allowed_[_spender] == 0. To decrement\n     * allowed value is better to use this function to avoid 2 calls (and wait until\n     * the first transaction is mined)\n     * From MonolithDAO Token.sol\n     * Emits an Approval event.\n     * @param spender The address which will spend the funds.\n     * @param subtractedValue The amount of tokens to decrease the allowance by.\n     */\n    function decreaseAllowance(\n        address spender,\n        uint256 subtractedValue)\n    public\n    returns (bool)\n    {\n        require(isLockupExpired(msg.sender));\n        require(spender != address(0));\n\n        _allowed[msg.sender][spender] = _allowed[msg.sender][spender].sub(subtractedValue);\n        emit Approval(msg.sender, spender, _allowed[msg.sender][spender]);\n        return true;\n    }\n\n    /**\n    * @dev Transfer token for a specified addresses\n    * @param from The address to transfer from.\n    * @param to The address to transfer to.\n    * @param value The amount to be transferred.\n    */\n    function _transfer(\n        address from,\n        address to,\n        uint256 value)\n    internal\n    {\n        require(to != address(0));\n\n        _balances[from] = _balances[from].sub(value);\n        _balances[to] = _balances[to].add(value);\n        emit Transfer(from, to, value);\n    }\n\n    /**\n    * @dev Allow transfer for chosen address and in lockup period.\n    * Can use only owner.\n    * @param _who Address for token owner.\n    */\n    function allowTransferInLockupPeriod(address _who)\n    onlyOwner()\n    public\n    {\n        individualLockupExpireTime[_who] = now - 1;\n    }\n\n    /**\n    * @dev Denny transfer for chosen address and in lockup period.\n    * Can use only owner.\n    * @param _who Address for token owner.\n    */\n    function denyTransferInLockupPeriod(address _who)\n    onlyOwner()\n    public\n    {\n        individualLockupExpireTime[_who] = 0;\n    }\n\n    /**\n    * @dev Denny transfer for chosen address and in lockup period.\n    * Can use only owner.\n    * @param _who Address for token owner.\n    * @param _time Time when lockup expired.\n    */\n    function setIndividualLockupExpireTime(\n        address _who,\n        uint256 _time)\n    onlyOwner()\n    public\n    {\n        individualLockupExpireTime[_who] = _time;\n    }\n\n    /**\n    * @dev Check lock up by time.\n    * @param _who Address for token owner.\n    * @return bool True if not locked.\n    */\n    function isLockupExpired(address _who)\n    view\n    public\n    returns (bool)\n    {\n        if (individualLockupExpireTime[_who] != 0) {\n            return individualLockupExpireTime[_who] < now;\n        }\n        return lockupExpired < now;\n    }\n\n    /**\n     * @dev Public function for owner that mints an amount of the token and assigns it to\n     * an account. This encapsulates the modification of balances such that the\n     * proper events are emitted.\n     * @param account The account that will receive the created tokens.\n     * @param value The amount that will be created.\n     */\n    function mint(\n        address account,\n        uint256 value)\n    onlyOwner()\n    public\n    {\n        require(account != address(0));\n\n        _totalSupply = _totalSupply.add(value);\n        _balances[account] = _balances[account].add(value);\n        emit Transfer(address(0), account, value);\n    }\n\n    /**\n     * @dev Public function for owner that burns an amount of the token of a given\n     * account.\n     * @param account The account whose tokens will be burnt.\n     * @param value The amount that will be burnt.\n     */\n    function burn(\n        address account,\n        uint256 value)\n    onlyOwner()\n    public\n    {\n        require(account != address(0));\n\n        _totalSupply = _totalSupply.sub(value);\n        _balances[account] = _balances[account].sub(value);\n        emit Transfer(account, address(0), value);\n    }\n}\n",
  "sourcePath": "/home/paddle-5/workspace/geo-protocol/contracts/GEOToken.sol",
  "compiler": {
    "name": "solc",
    "version": "0.4.24+commit.e67f0147.Emscripten.clang"
  },
  "schemaVersion": "2.0.1",
  "updatedAt": "2019-01-21T12:01:32.687Z"
}